{
  "_format": "hh-sol-artifact-1",
  "contractName": "BetWithAvax",
  "sourceName": "contracts/BetWithAvax.sol",
  "abi": [
    {
      "inputs": [],
      "name": "_random",
      "outputs": [
        {
          "internalType": "uint256",
          "name": "",
          "type": "uint256"
        }
      ],
      "stateMutability": "view",
      "type": "function"
    },
    {
      "inputs": [
        {
          "internalType": "uint8",
          "name": "newLimit",
          "type": "uint8"
        }
      ],
      "name": "changeLimit",
      "outputs": [],
      "stateMutability": "payable",
      "type": "function"
    },
    {
      "inputs": [
        {
          "internalType": "address",
          "name": "newOwner",
          "type": "address"
        }
      ],
      "name": "changeOwner",
      "outputs": [],
      "stateMutability": "payable",
      "type": "function"
    },
    {
      "inputs": [
        {
          "internalType": "uint256",
          "name": "newFee",
          "type": "uint256"
        }
      ],
      "name": "changeParticipationFee",
      "outputs": [],
      "stateMutability": "payable",
      "type": "function"
    },
    {
      "inputs": [],
      "name": "getCount",
      "outputs": [
        {
          "internalType": "uint8",
          "name": "",
          "type": "uint8"
        }
      ],
      "stateMutability": "view",
      "type": "function"
    },
    {
      "inputs": [],
      "name": "getFee",
      "outputs": [
        {
          "internalType": "uint256",
          "name": "",
          "type": "uint256"
        }
      ],
      "stateMutability": "view",
      "type": "function"
    },
    {
      "inputs": [],
      "name": "getLimit",
      "outputs": [
        {
          "internalType": "uint8",
          "name": "",
          "type": "uint8"
        }
      ],
      "stateMutability": "view",
      "type": "function"
    },
    {
      "inputs": [],
      "name": "join",
      "outputs": [],
      "stateMutability": "payable",
      "type": "function"
    }
  ],
  "bytecode": "0x608060405260008060006101000a81548160ff021916908360ff160217905550601e600260006101000a81548160ff021916908360ff160217905550670de0b6b3a764000060035573957a3dde041b41a369e8fda9e53bac2e08e7e3dd600460006101000a81548173ffffffffffffffffffffffffffffffffffffffff021916908373ffffffffffffffffffffffffffffffffffffffff1602179055503480156100a857600080fd5b50610cef806100b86000396000f3fe60806040526004361061007b5760003560e01c8063b295a00e1161004e578063b295a00e1461010e578063b688a36314610139578063ced72f8714610143578063e08a5b4e1461016e5761007b565b8063061377141461008057806306748fb11461009c578063a6f9dae1146100c7578063a87d942c146100e3575b600080fd5b61009a60048036038101906100959190610751565b61018a565b005b3480156100a857600080fd5b506100b1610238565b6040516100be919061098a565b60405180910390f35b6100e160048036038101906100dc91906106ff565b61028a565b005b3480156100ef57600080fd5b506100f861035e565b60405161010591906109a5565b60405180910390f35b34801561011a57600080fd5b50610123610374565b60405161013091906109a5565b60405180910390f35b61014161038b565b005b34801561014f57600080fd5b5061015861049f565b604051610165919061098a565b60405180910390f35b61018860048036038101906101839190610728565b6104a9565b005b600460009054906101000a900473ffffffffffffffffffffffffffffffffffffffff1673ffffffffffffffffffffffffffffffffffffffff163373ffffffffffffffffffffffffffffffffffffffff161461021a576040517f08c379a00000000000000000000000000000000000000000000000000000000081526004016102119061094a565b60405180910390fd5b80600260006101000a81548160ff021916908360ff16021790555050565b6000600260009054906101000a900460ff1660ff16424433604051602001610262939291906108ad565b6040516020818303038152906040528051906020012060001c6102859190610b08565b905090565b600460009054906101000a900473ffffffffffffffffffffffffffffffffffffffff1673ffffffffffffffffffffffffffffffffffffffff163373ffffffffffffffffffffffffffffffffffffffff161461031a576040517f08c379a0000000000000000000000000000000000000000000000000000000008152600401610311906108ea565b60405180910390fd5b80600460006101000a81548173ffffffffffffffffffffffffffffffffffffffff021916908373ffffffffffffffffffffffffffffffffffffffff16021790555050565b60008060009054906101000a900460ff16905090565b6000600260009054906101000a900460ff16905090565b6003543410156103d0576040517f08c379a00000000000000000000000000000000000000000000000000000000081526004016103c79061092a565b60405180910390fd5b60008081819054906101000a900460ff16809291906103ee90610ab0565b91906101000a81548160ff021916908360ff1602179055505033600160008060009054906101000a900460ff1660ff16815260200190815260200160002060006101000a81548173ffffffffffffffffffffffffffffffffffffffff021916908373ffffffffffffffffffffffffffffffffffffffff160217905550600260009054906101000a900460ff1660ff1660008054906101000a900460ff1660ff16141561049d5761049c610543565b5b565b6000600354905090565b600460009054906101000a900473ffffffffffffffffffffffffffffffffffffffff1673ffffffffffffffffffffffffffffffffffffffff163373ffffffffffffffffffffffffffffffffffffffff1614610539576040517f08c379a00000000000000000000000000000000000000000000000000000000081526004016105309061090a565b60405180910390fd5b8060038190555050565b6000479050610580600460009054906101000a900473ffffffffffffffffffffffffffffffffffffffff1660068361057b91906109dc565b6105cd565b600061058a61067e565b90506105ae81600660058561059f9190610a0d565b6105a991906109dc565b6105cd565b60008060006101000a81548160ff021916908360ff1602179055505050565b60008273ffffffffffffffffffffffffffffffffffffffff16826040516105f390610898565b60006040518083038185875af1925050503d8060008114610630576040519150601f19603f3d011682016040523d82523d6000602084013e610635565b606091505b5050905080610679576040517f08c379a00000000000000000000000000000000000000000000000000000000081526004016106709061096a565b60405180910390fd5b505050565b60006001600061068c610238565b815260200190815260200160002060009054906101000a900473ffffffffffffffffffffffffffffffffffffffff16905090565b6000813590506106cf81610c74565b92915050565b6000813590506106e481610c8b565b92915050565b6000813590506106f981610ca2565b92915050565b60006020828403121561071157600080fd5b600061071f848285016106c0565b91505092915050565b60006020828403121561073a57600080fd5b6000610748848285016106d5565b91505092915050565b60006020828403121561076357600080fd5b6000610771848285016106ea565b91505092915050565b61078b61078682610a67565b610ada565b82525050565b600061079e601b836109cb565b91506107a982610ba4565b602082019050919050565b60006107c16019836109cb565b91506107cc82610bcd565b602082019050919050565b60006107e4601e836109cb565b91506107ef82610bf6565b602082019050919050565b6000610807601b836109cb565b915061081282610c1f565b602082019050919050565b600061082a6000836109c0565b915061083582610c48565b600082019050919050565b600061084d6010836109cb565b915061085882610c4b565b602082019050919050565b61086c81610a99565b82525050565b61088361087e82610a99565b610afe565b82525050565b61089281610aa3565b82525050565b60006108a38261081d565b9150819050919050565b60006108b98286610872565b6020820191506108c98285610872565b6020820191506108d9828461077a565b601482019150819050949350505050565b6000602082019050818103600083015261090381610791565b9050919050565b60006020820190508181036000830152610923816107b4565b9050919050565b60006020820190508181036000830152610943816107d7565b9050919050565b60006020820190508181036000830152610963816107fa565b9050919050565b6000602082019050818103600083015261098381610840565b9050919050565b600060208201905061099f6000830184610863565b92915050565b60006020820190506109ba6000830184610889565b92915050565b600081905092915050565b600082825260208201905092915050565b60006109e782610a99565b91506109f283610a99565b925082610a0257610a01610b68565b5b828204905092915050565b6000610a1882610a99565b9150610a2383610a99565b9250817fffffffffffffffffffffffffffffffffffffffffffffffffffffffffffffffff0483118215151615610a5c57610a5b610b39565b5b828202905092915050565b6000610a7282610a79565b9050919050565b600073ffffffffffffffffffffffffffffffffffffffff82169050919050565b6000819050919050565b600060ff82169050919050565b6000610abb82610aa3565b915060ff821415610acf57610ace610b39565b5b600182019050919050565b6000610ae582610aec565b9050919050565b6000610af782610b97565b9050919050565b6000819050919050565b6000610b1382610a99565b9150610b1e83610a99565b925082610b2e57610b2d610b68565b5b828206905092915050565b7f4e487b7100000000000000000000000000000000000000000000000000000000600052601160045260246000fd5b7f4e487b7100000000000000000000000000000000000000000000000000000000600052601260045260246000fd5b60008160601b9050919050565b7f4f6e6c79206f776e65722063616e206368616e6765206f776e65720000000000600082015250565b7f4f6e6c79206f776e65722063616e206368616e67652066656500000000000000600082015250565b7f596f7520646964206e6f742073656e7420657468657220656e6f756768740000600082015250565b7f4f6e6c79206f776e65722063616e206368616e6765206c696d69740000000000600082015250565b50565b7f5472616e73666572206661696c65642e00000000000000000000000000000000600082015250565b610c7d81610a67565b8114610c8857600080fd5b50565b610c9481610a99565b8114610c9f57600080fd5b50565b610cab81610aa3565b8114610cb657600080fd5b5056fea2646970667358221220d9067508f6accd5478bbc8f7c54fe37076b1f0be2c5076c332b7bd7c77da63d964736f6c63430008040033",
  "linkReferences": {},
  "deployedLinkReferences": {}
}